{
  "_format": "hh-sol-artifact-1",
  "contractName": "MyEpicNft",
  "sourceName": "contracts/MyEpicNft.sol",
  "abi": [
    {
      "inputs": [],
      "stateMutability": "payable",
      "type": "constructor"
    },
    {
      "anonymous": false,
      "inputs": [
        {
          "indexed": true,
          "internalType": "address",
          "name": "owner",
          "type": "address"
        },
        {
          "indexed": true,
          "internalType": "address",
          "name": "approved",
          "type": "address"
        },
        {
          "indexed": true,
          "internalType": "uint256",
          "name": "tokenId",
          "type": "uint256"
        }
      ],
      "name": "Approval",
      "type": "event"
    },
    {
      "anonymous": false,
      "inputs": [
        {
          "indexed": true,
          "internalType": "address",
          "name": "owner",
          "type": "address"
        },
        {
          "indexed": true,
          "internalType": "address",
          "name": "operator",
          "type": "address"
        },
        {
          "indexed": false,
          "internalType": "bool",
          "name": "approved",
          "type": "bool"
        }
      ],
      "name": "ApprovalForAll",
      "type": "event"
    },
    {
      "anonymous": false,
      "inputs": [
        {
          "indexed": false,
          "internalType": "uint256",
          "name": "randomness",
          "type": "uint256"
        }
      ],
      "name": "RandomNumberGenerated",
      "type": "event"
    },
    {
      "anonymous": false,
      "inputs": [
        {
          "indexed": true,
          "internalType": "address",
          "name": "from",
          "type": "address"
        },
        {
          "indexed": true,
          "internalType": "address",
          "name": "to",
          "type": "address"
        },
        {
          "indexed": true,
          "internalType": "uint256",
          "name": "tokenId",
          "type": "uint256"
        }
      ],
      "name": "Transfer",
      "type": "event"
    },
    {
      "anonymous": false,
      "inputs": [
        {
          "indexed": false,
          "internalType": "address",
          "name": "sender",
          "type": "address"
        },
        {
          "indexed": false,
          "internalType": "uint256",
          "name": "tokenId",
          "type": "uint256"
        }
      ],
      "name": "newEpicNftMinted",
      "type": "event"
    },
    {
      "inputs": [
        {
          "internalType": "address",
          "name": "to",
          "type": "address"
        },
        {
          "internalType": "uint256",
          "name": "tokenId",
          "type": "uint256"
        }
      ],
      "name": "approve",
      "outputs": [],
      "stateMutability": "nonpayable",
      "type": "function"
    },
    {
      "inputs": [
        {
          "internalType": "address",
          "name": "owner",
          "type": "address"
        }
      ],
      "name": "balanceOf",
      "outputs": [
        {
          "internalType": "uint256",
          "name": "",
          "type": "uint256"
        }
      ],
      "stateMutability": "view",
      "type": "function"
    },
    {
      "inputs": [
        {
          "internalType": "uint256",
          "name": "tokenId",
          "type": "uint256"
        }
      ],
      "name": "getApproved",
      "outputs": [
        {
          "internalType": "address",
          "name": "",
          "type": "address"
        }
      ],
      "stateMutability": "view",
      "type": "function"
    },
    {
      "inputs": [],
      "name": "getRandomNumber",
      "outputs": [
        {
          "internalType": "bytes32",
          "name": "requestId",
          "type": "bytes32"
        }
      ],
      "stateMutability": "nonpayable",
      "type": "function"
    },
    {
      "inputs": [],
      "name": "getTotalNftsMinted",
      "outputs": [
        {
          "internalType": "uint256",
          "name": "",
          "type": "uint256"
        }
      ],
      "stateMutability": "view",
      "type": "function"
    },
    {
      "inputs": [
        {
          "internalType": "address",
          "name": "owner",
          "type": "address"
        },
        {
          "internalType": "address",
          "name": "operator",
          "type": "address"
        }
      ],
      "name": "isApprovedForAll",
      "outputs": [
        {
          "internalType": "bool",
          "name": "",
          "type": "bool"
        }
      ],
      "stateMutability": "view",
      "type": "function"
    },
    {
      "inputs": [
        {
          "internalType": "uint256",
          "name": "randomNum",
          "type": "uint256"
        }
      ],
      "name": "makeAnEpicNft",
      "outputs": [],
      "stateMutability": "nonpayable",
      "type": "function"
    },
    {
      "inputs": [],
      "name": "name",
      "outputs": [
        {
          "internalType": "string",
          "name": "",
          "type": "string"
        }
      ],
      "stateMutability": "view",
      "type": "function"
    },
    {
      "inputs": [
        {
          "internalType": "uint256",
          "name": "tokenId",
          "type": "uint256"
        }
      ],
      "name": "ownerOf",
      "outputs": [
        {
          "internalType": "address",
          "name": "",
          "type": "address"
        }
      ],
      "stateMutability": "view",
      "type": "function"
    },
    {
      "inputs": [],
      "name": "pickRandomColor",
      "outputs": [
        {
          "internalType": "string",
          "name": "",
          "type": "string"
        }
      ],
      "stateMutability": "view",
      "type": "function"
    },
    {
      "inputs": [],
      "name": "pickRandomFirstWord",
      "outputs": [
        {
          "internalType": "string",
          "name": "",
          "type": "string"
        }
      ],
      "stateMutability": "view",
      "type": "function"
    },
    {
      "inputs": [],
      "name": "pickRandomSecondWord",
      "outputs": [
        {
          "internalType": "string",
          "name": "",
          "type": "string"
        }
      ],
      "stateMutability": "view",
      "type": "function"
    },
    {
      "inputs": [],
      "name": "pickRandomThirdWord",
      "outputs": [
        {
          "internalType": "string",
          "name": "",
          "type": "string"
        }
      ],
      "stateMutability": "view",
      "type": "function"
    },
    {
      "inputs": [
        {
          "internalType": "bytes32",
          "name": "requestId",
          "type": "bytes32"
        },
        {
          "internalType": "uint256",
          "name": "randomness",
          "type": "uint256"
        }
      ],
      "name": "rawFulfillRandomness",
      "outputs": [],
      "stateMutability": "nonpayable",
      "type": "function"
    },
    {
      "inputs": [
        {
          "internalType": "address",
          "name": "from",
          "type": "address"
        },
        {
          "internalType": "address",
          "name": "to",
          "type": "address"
        },
        {
          "internalType": "uint256",
          "name": "tokenId",
          "type": "uint256"
        }
      ],
      "name": "safeTransferFrom",
      "outputs": [],
      "stateMutability": "nonpayable",
      "type": "function"
    },
    {
      "inputs": [
        {
          "internalType": "address",
          "name": "from",
          "type": "address"
        },
        {
          "internalType": "address",
          "name": "to",
          "type": "address"
        },
        {
          "internalType": "uint256",
          "name": "tokenId",
          "type": "uint256"
        },
        {
          "internalType": "bytes",
          "name": "_data",
          "type": "bytes"
        }
      ],
      "name": "safeTransferFrom",
      "outputs": [],
      "stateMutability": "nonpayable",
      "type": "function"
    },
    {
      "inputs": [
        {
          "internalType": "address",
          "name": "operator",
          "type": "address"
        },
        {
          "internalType": "bool",
          "name": "approved",
          "type": "bool"
        }
      ],
      "name": "setApprovalForAll",
      "outputs": [],
      "stateMutability": "nonpayable",
      "type": "function"
    },
    {
      "inputs": [
        {
          "internalType": "bytes4",
          "name": "interfaceId",
          "type": "bytes4"
        }
      ],
      "name": "supportsInterface",
      "outputs": [
        {
          "internalType": "bool",
          "name": "",
          "type": "bool"
        }
      ],
      "stateMutability": "view",
      "type": "function"
    },
    {
      "inputs": [],
      "name": "symbol",
      "outputs": [
        {
          "internalType": "string",
          "name": "",
          "type": "string"
        }
      ],
      "stateMutability": "view",
      "type": "function"
    },
    {
      "inputs": [
        {
          "internalType": "uint256",
          "name": "tokenId",
          "type": "uint256"
        }
      ],
      "name": "tokenURI",
      "outputs": [
        {
          "internalType": "string",
          "name": "",
          "type": "string"
        }
      ],
      "stateMutability": "view",
      "type": "function"
    },
    {
      "inputs": [
        {
          "internalType": "address",
          "name": "from",
          "type": "address"
        },
        {
          "internalType": "address",
          "name": "to",
          "type": "address"
        },
        {
          "internalType": "uint256",
          "name": "tokenId",
          "type": "uint256"
        }
      ],
      "name": "transferFrom",
      "outputs": [],
      "stateMutability": "nonpayable",
      "type": "function"
    }
  ],
  "bytecode": "0x60c060405260405180610100016040528060d381526020016200519660d39139600890805190602001906200003692919062000b82565b506040518060800160405280605681526020016200526960569139600990805190602001906200006892919062000b82565b506000600d556040518061016001604052806040518060400160405280600981526020017f46616e746173746963000000000000000000000000000000000000000000000081525081526020016040518060400160405280600481526020017f457069630000000000000000000000000000000000000000000000000000000081525081526020016040518060400160405280600881526020017f5465727269626c6500000000000000000000000000000000000000000000000081525081526020016040518060400160405280600581526020017f4372617a7900000000000000000000000000000000000000000000000000000081525081526020016040518060400160405280600481526020017f57696c640000000000000000000000000000000000000000000000000000000081525081526020016040518060400160405280600a81526020017f54657272696679696e670000000000000000000000000000000000000000000081525081526020016040518060400160405280600681526020017f53706f6f6b79000000000000000000000000000000000000000000000000000081525081526020016040518060400160405280600681526020017f53636f6f6279000000000000000000000000000000000000000000000000000081525081526020016040518060400160405280601381526020017f537570657243616c6946616a696c69737469630000000000000000000000000081525081526020016040518060400160405280600481526020017f526172650000000000000000000000000000000000000000000000000000000081525081526020016040518060400160405280600981526020017f4c6567656e646172790000000000000000000000000000000000000000000000815250815250600e90600b6200031392919062000c13565b506040518061010001604052806040518060400160405280600781526020017f43757063616b650000000000000000000000000000000000000000000000000081525081526020016040518060400160405280600581526020017f50697a7a6100000000000000000000000000000000000000000000000000000081525081526020016040518060400160405280600981526020017f4d696c6b7368616b65000000000000000000000000000000000000000000000081525081526020016040518060400160405280600581526020017f437572727900000000000000000000000000000000000000000000000000000081525081526020016040518060400160405280600781526020017f436869636b656e0000000000000000000000000000000000000000000000000081525081526020016040518060400160405280600581526020017f53616c616400000000000000000000000000000000000000000000000000000081525081526020016040518060400160405280600881526020017f53616e647769636800000000000000000000000000000000000000000000000081525081526020016040518060400160405280600481526020017f4669736800000000000000000000000000000000000000000000000000000000815250815250600f9060086200050892919062000c7a565b506040518061014001604052806040518060400160405280600681526020017f4e617275746f000000000000000000000000000000000000000000000000000081525081526020016040518060400160405280600681526020017f536173756b65000000000000000000000000000000000000000000000000000081525081526020016040518060400160405280600481526020017f53756b690000000000000000000000000000000000000000000000000000000081525081526020016040518060400160405280600481526020017f476f6b750000000000000000000000000000000000000000000000000000000081525081526020016040518060400160405280600681526020017f566567657461000000000000000000000000000000000000000000000000000081525081526020016040518060400160405280600681526020017f4b72696c696e000000000000000000000000000000000000000000000000000081525081526020016040518060400160405280600681526020017f5069636f6c6f000000000000000000000000000000000000000000000000000081525081526020016040518060400160405280600581526020017f476f68616e00000000000000000000000000000000000000000000000000000081525081526020016040518060400160405280600681526020017f467269657a61000000000000000000000000000000000000000000000000000081525081526020016040518060400160405280600681526020017f4265657275730000000000000000000000000000000000000000000000000000815250815250601090600a6200077392919062000ce1565b506040518060c001604052806040518060400160405280600381526020017f726564000000000000000000000000000000000000000000000000000000000081525081526020016040518060400160405280600781526020017f233038433241380000000000000000000000000000000000000000000000000081525081526020016040518060400160405280600581526020017f626c61636b00000000000000000000000000000000000000000000000000000081525081526020016040518060400160405280600681526020017f79656c6c6f77000000000000000000000000000000000000000000000000000081525081526020016040518060400160405280600481526020017f626c75650000000000000000000000000000000000000000000000000000000081525081526020016040518060400160405280600581526020017f677265656e0000000000000000000000000000000000000000000000000000008152508152506011906006620008f192919062000d48565b5073b3dccb4cf7a26f6cf6b120cf5a73875b7bbc655b7301be23585060835e02b77ef475b0cc51aa1e07096040518060400160405280600781526020017f476f6b754e4654000000000000000000000000000000000000000000000000008152506040518060400160405280600481526020017f474f4b55000000000000000000000000000000000000000000000000000000008152508160009080519060200190620009a092919062000b82565b508060019080519060200190620009b992919062000b82565b5050508173ffffffffffffffffffffffffffffffffffffffff1660a08173ffffffffffffffffffffffffffffffffffffffff1660601b815250508073ffffffffffffffffffffffffffffffffffffffff1660808173ffffffffffffffffffffffffffffffffffffffff1660601b81525050505062000a776040518060400160405280600b81526020017f576f686f6f2c204e66747300000000000000000000000000000000000000000081525062000ab660201b6200145e1760201c565b7f2ed0feb3e7fd2022120aa84fab1945545a9f2ffc9076fd6156fa96eaff4c131160001b600a8190555067016345785d8a0000600b8190555062000f69565b62000b568160405160240162000acd919062000e7d565b6040516020818303038152906040527f41304fac000000000000000000000000000000000000000000000000000000007bffffffffffffffffffffffffffffffffffffffffffffffffffffffff19166020820180517bffffffffffffffffffffffffffffffffffffffffffffffffffffffff838183161783525050505062000b5960201b60201c565b50565b60008151905060006a636f6e736f6c652e6c6f679050602083016000808483855afa5050505050565b82805462000b909062000ef3565b90600052602060002090601f01602090048101928262000bb4576000855562000c00565b82601f1062000bcf57805160ff191683800117855562000c00565b8280016001018555821562000c00579182015b8281111562000bff57825182559160200191906001019062000be2565b5b50905062000c0f919062000daf565b5090565b82805482825590600052602060002090810192821562000c67579160200282015b8281111562000c6657825182908051906020019062000c5592919062000b82565b509160200191906001019062000c34565b5b50905062000c76919062000dce565b5090565b82805482825590600052602060002090810192821562000cce579160200282015b8281111562000ccd57825182908051906020019062000cbc92919062000b82565b509160200191906001019062000c9b565b5b50905062000cdd919062000dce565b5090565b82805482825590600052602060002090810192821562000d35579160200282015b8281111562000d3457825182908051906020019062000d2392919062000b82565b509160200191906001019062000d02565b5b50905062000d44919062000dce565b5090565b82805482825590600052602060002090810192821562000d9c579160200282015b8281111562000d9b57825182908051906020019062000d8a92919062000b82565b509160200191906001019062000d69565b5b50905062000dab919062000dce565b5090565b5b8082111562000dca57600081600090555060010162000db0565b5090565b5b8082111562000df2576000818162000de8919062000df6565b5060010162000dcf565b5090565b50805462000e049062000ef3565b6000825580601f1062000e18575062000e39565b601f01602090049060005260206000209081019062000e38919062000daf565b5b50565b600062000e498262000ea1565b62000e55818562000eac565b935062000e6781856020860162000ebd565b62000e728162000f58565b840191505092915050565b6000602082019050818103600083015262000e99818462000e3c565b905092915050565b600081519050919050565b600082825260208201905092915050565b60005b8381101562000edd57808201518184015260208101905062000ec0565b8381111562000eed576000848401525b50505050565b6000600282049050600182168062000f0c57607f821691505b6020821081141562000f235762000f2262000f29565b5b50919050565b7f4e487b7100000000000000000000000000000000000000000000000000000000600052602260045260246000fd5b6000601f19601f8301169050919050565b60805160601c60a05160601c6141f362000fa360003960008181610c190152611fe40152600081816111e40152611fa801526141f36000f3fe608060405234801561001057600080fd5b50600436106101375760003560e01c806395078e1f116100b8578063c05fe70b1161007c578063c05fe70b14610338578063c1d6008314610356578063c87b56dd14610374578063dbdff2c1146103a4578063dc0b7a2a146103c2578063e985e9c5146103e057610137565b806395078e1f146102a657806395d89b41146102c4578063a22cb465146102e2578063a3ed4802146102fe578063b88d4fde1461031c57610137565b806342842e0e116100ff57806342842e0e146101f25780636352211e1461020e57806370a082311461023e578063831225601461026e57806394985ddd1461028a57610137565b806301ffc9a71461013c57806306fdde031461016c578063081812fc1461018a578063095ea7b3146101ba57806323b872dd146101d6575b600080fd5b61015660048036038101906101519190612ae2565b610410565b604051610163919061329e565b60405180910390f35b6101746104f2565b6040516101819190613342565b60405180910390f35b6101a4600480360381019061019f9190612b34565b610584565b6040516101b191906131d0565b60405180910390f35b6101d460048036038101906101cf9190612a41565b610609565b005b6101f060048036038101906101eb919061293b565b610721565b005b61020c6004803603810190610207919061293b565b610781565b005b61022860048036038101906102239190612b34565b6107a1565b60405161023591906131d0565b60405180910390f35b610258600480360381019061025391906128d6565b610853565b6040516102659190613602565b60405180910390f35b61028860048036038101906102839190612b34565b61090b565b005b6102a4600480360381019061029f9190612aa6565b610c17565b005b6102ae610cb3565b6040516102bb9190613342565b60405180910390f35b6102cc610d9f565b6040516102d99190613342565b60405180910390f35b6102fc60048036038101906102f79190612a05565b610e31565b005b610306610e47565b6040516103139190613342565b60405180910390f35b6103366004803603810190610331919061298a565b610f33565b005b610340610f95565b60405161034d9190613342565b60405180910390f35b61035e611081565b60405161036b9190613602565b60405180910390f35b61038e60048036038101906103899190612b34565b61108b565b60405161039b9190613342565b60405180910390f35b6103ac6111dd565b6040516103b991906132b9565b60405180910390f35b6103ca6112de565b6040516103d79190613342565b60405180910390f35b6103fa60048036038101906103f591906128ff565b6113ca565b604051610407919061329e565b60405180910390f35b60007f80ac58cd000000000000000000000000000000000000000000000000000000007bffffffffffffffffffffffffffffffffffffffffffffffffffffffff1916827bffffffffffffffffffffffffffffffffffffffffffffffffffffffff191614806104db57507f5b5e139f000000000000000000000000000000000000000000000000000000007bffffffffffffffffffffffffffffffffffffffffffffffffffffffff1916827bffffffffffffffffffffffffffffffffffffffffffffffffffffffff1916145b806104eb57506104ea826114f7565b5b9050919050565b606060008054610501906138a0565b80601f016020809104026020016040519081016040528092919081815260200182805461052d906138a0565b801561057a5780601f1061054f5761010080835404028352916020019161057a565b820191906000526020600020905b81548152906001019060200180831161055d57829003601f168201915b5050505050905090565b600061058f82611561565b6105ce576040517f08c379a00000000000000000000000000000000000000000000000000000000081526004016105c590613502565b60405180910390fd5b6004600083815260200190815260200160002060009054906101000a900473ffffffffffffffffffffffffffffffffffffffff169050919050565b6000610614826107a1565b90508073ffffffffffffffffffffffffffffffffffffffff168373ffffffffffffffffffffffffffffffffffffffff161415610685576040517f08c379a000000000000000000000000000000000000000000000000000000000815260040161067c90613582565b60405180910390fd5b8073ffffffffffffffffffffffffffffffffffffffff166106a46115cd565b73ffffffffffffffffffffffffffffffffffffffff1614806106d357506106d2816106cd6115cd565b6113ca565b5b610712576040517f08c379a000000000000000000000000000000000000000000000000000000000815260040161070990613442565b60405180910390fd5b61071c83836115d5565b505050565b61073261072c6115cd565b8261168e565b610771576040517f08c379a0000000000000000000000000000000000000000000000000000000008152600401610768906135a2565b60405180910390fd5b61077c83838361176c565b505050565b61079c83838360405180602001604052806000815250610f33565b505050565b6000806002600084815260200190815260200160002060009054906101000a900473ffffffffffffffffffffffffffffffffffffffff169050600073ffffffffffffffffffffffffffffffffffffffff168173ffffffffffffffffffffffffffffffffffffffff16141561084a576040517f08c379a000000000000000000000000000000000000000000000000000000000815260040161084190613482565b60405180910390fd5b80915050919050565b60008073ffffffffffffffffffffffffffffffffffffffff168273ffffffffffffffffffffffffffffffffffffffff1614156108c4576040517f08c379a00000000000000000000000000000000000000000000000000000000081526004016108bb90613462565b60405180910390fd5b600360008373ffffffffffffffffffffffffffffffffffffffff1673ffffffffffffffffffffffffffffffffffffffff168152602001908152602001600020549050919050565b60326001600d5461091c91906136cb565b111561095d576040517f08c379a0000000000000000000000000000000000000000000000000000000008152600401610954906135e2565b60405180910390fd5b600061096960126119c8565b905081600c81905550600061097c610e47565b90506000610988610cb3565b90506000610994610f95565b905060006109a06112de565b905060008484846040516020016109b9939291906130cd565b604051602081830303815290604052905060006008836009846040516020016109e594939291906130fe565b60405160208183030381529060405290506000610a2a83610a05846119d6565b604051602001610a16929190613169565b6040516020818303038152906040526119d6565b9050600081604051602001610a3f91906131ae565b6040516020818303038152906040529050610a8e6040518060400160405280601581526020017f0a2d2d2d2d2d2d2d2d2d2d2d2d2d2d2d2d2d2d2d2d000000000000000000000081525061145e565b610a978161145e565b610ad56040518060400160405280601581526020017f2d2d2d2d2d2d2d2d2d2d2d2d2d2d2d2d2d2d2d2d0a000000000000000000000081525061145e565b610adf338a611b94565b610ae98982611bb2565b610af36012611c26565b610b16604051806060016040528060258152602001614159602591398a33611c3c565b600d6000815480929190610b2990613903565b91905055507f6f7cc39c2501a47a177fd5be282deb7b4074f6244d33b05e8bba5ad9824700ee338a604051610b5f929190613237565b60405180910390a1610ba56040518060400160405280601581526020017f0a2d2d2d2d2d2d2d2d2d2d2d2d2d2d2d2d2d2d2d2d000000000000000000000081525061145e565b610bcd81604051602001610bb99190613147565b60405160208183030381529060405261145e565b610c0b6040518060400160405280601581526020017f2d2d2d2d2d2d2d2d2d2d2d2d2d2d2d2d2d2d2d2d0a000000000000000000000081525061145e565b50505050505050505050565b7f000000000000000000000000000000000000000000000000000000000000000073ffffffffffffffffffffffffffffffffffffffff163373ffffffffffffffffffffffffffffffffffffffff1614610ca5576040517f08c379a0000000000000000000000000000000000000000000000000000000008152600401610c9c90613562565b60405180910390fd5b610caf8282611cdb565b5050565b60606000600f80549050600c54610cca9190613960565b9050600f8181548110610d06577f4e487b7100000000000000000000000000000000000000000000000000000000600052603260045260246000fd5b906000526020600020018054610d1b906138a0565b80601f0160208091040260200160405190810160405280929190818152602001828054610d47906138a0565b8015610d945780601f10610d6957610100808354040283529160200191610d94565b820191906000526020600020905b815481529060010190602001808311610d7757829003601f168201915b505050505091505090565b606060018054610dae906138a0565b80601f0160208091040260200160405190810160405280929190818152602001828054610dda906138a0565b8015610e275780601f10610dfc57610100808354040283529160200191610e27565b820191906000526020600020905b815481529060010190602001808311610e0a57829003601f168201915b5050505050905090565b610e43610e3c6115cd565b8383611d1d565b5050565b60606000600e80549050600c54610e5e9190613960565b9050600e8181548110610e9a577f4e487b7100000000000000000000000000000000000000000000000000000000600052603260045260246000fd5b906000526020600020018054610eaf906138a0565b80601f0160208091040260200160405190810160405280929190818152602001828054610edb906138a0565b8015610f285780601f10610efd57610100808354040283529160200191610f28565b820191906000526020600020905b815481529060010190602001808311610f0b57829003601f168201915b505050505091505090565b610f44610f3e6115cd565b8361168e565b610f83576040517f08c379a0000000000000000000000000000000000000000000000000000000008152600401610f7a906135a2565b60405180910390fd5b610f8f84848484611e8a565b50505050565b60606000601080549050600c54610fac9190613960565b905060108181548110610fe8577f4e487b7100000000000000000000000000000000000000000000000000000000600052603260045260246000fd5b906000526020600020018054610ffd906138a0565b80601f0160208091040260200160405190810160405280929190818152602001828054611029906138a0565b80156110765780601f1061104b57610100808354040283529160200191611076565b820191906000526020600020905b81548152906001019060200180831161105957829003601f168201915b505050505091505090565b6000600d54905090565b606061109682611561565b6110d5576040517f08c379a00000000000000000000000000000000000000000000000000000000081526004016110cc906134e2565b60405180910390fd5b60006006600084815260200190815260200160002080546110f5906138a0565b80601f0160208091040260200160405190810160405280929190818152602001828054611121906138a0565b801561116e5780601f106111435761010080835404028352916020019161116e565b820191906000526020600020905b81548152906001019060200180831161115157829003601f168201915b50505050509050600061117f611ee6565b90506000815114156111955781925050506111d8565b6000825111156111ca5780826040516020016111b29291906130a9565b604051602081830303815290604052925050506111d8565b6111d384611efd565b925050505b919050565b6000600b547f000000000000000000000000000000000000000000000000000000000000000073ffffffffffffffffffffffffffffffffffffffff166370a08231306040518263ffffffff1660e01b815260040161123b91906131d0565b60206040518083038186803b15801561125357600080fd5b505afa158015611267573d6000803e3d6000fd5b505050506040513d601f19601f8201168201806040525081019061128b9190612b5d565b116112cb576040517f08c379a00000000000000000000000000000000000000000000000000000000081526004016112c2906135c2565b60405180910390fd5b6112d9600a54600b54611fa4565b905090565b60606000601180549050600c546112f59190613960565b905060118181548110611331577f4e487b7100000000000000000000000000000000000000000000000000000000600052603260045260246000fd5b906000526020600020018054611346906138a0565b80601f0160208091040260200160405190810160405280929190818152602001828054611372906138a0565b80156113bf5780601f10611394576101008083540402835291602001916113bf565b820191906000526020600020905b8154815290600101906020018083116113a257829003601f168201915b505050505091505090565b6000600560008473ffffffffffffffffffffffffffffffffffffffff1673ffffffffffffffffffffffffffffffffffffffff16815260200190815260200160002060008373ffffffffffffffffffffffffffffffffffffffff1673ffffffffffffffffffffffffffffffffffffffff16815260200190815260200160002060009054906101000a900460ff16905092915050565b6114f4816040516024016114729190613342565b6040516020818303038152906040527f41304fac000000000000000000000000000000000000000000000000000000007bffffffffffffffffffffffffffffffffffffffffffffffffffffffff19166020820180517bffffffffffffffffffffffffffffffffffffffffffffffffffffffff8381831617835250505050612106565b50565b60007f01ffc9a7000000000000000000000000000000000000000000000000000000007bffffffffffffffffffffffffffffffffffffffffffffffffffffffff1916827bffffffffffffffffffffffffffffffffffffffffffffffffffffffff1916149050919050565b60008073ffffffffffffffffffffffffffffffffffffffff166002600084815260200190815260200160002060009054906101000a900473ffffffffffffffffffffffffffffffffffffffff1673ffffffffffffffffffffffffffffffffffffffff1614159050919050565b600033905090565b816004600083815260200190815260200160002060006101000a81548173ffffffffffffffffffffffffffffffffffffffff021916908373ffffffffffffffffffffffffffffffffffffffff160217905550808273ffffffffffffffffffffffffffffffffffffffff16611648836107a1565b73ffffffffffffffffffffffffffffffffffffffff167f8c5be1e5ebec7d5bd14f71427d1e84f3dd0314c0f7b2291e5b200ac8c7c3b92560405160405180910390a45050565b600061169982611561565b6116d8576040517f08c379a00000000000000000000000000000000000000000000000000000000081526004016116cf90613422565b60405180910390fd5b60006116e3836107a1565b90508073ffffffffffffffffffffffffffffffffffffffff168473ffffffffffffffffffffffffffffffffffffffff16148061175257508373ffffffffffffffffffffffffffffffffffffffff1661173a84610584565b73ffffffffffffffffffffffffffffffffffffffff16145b80611763575061176281856113ca565b5b91505092915050565b8273ffffffffffffffffffffffffffffffffffffffff1661178c826107a1565b73ffffffffffffffffffffffffffffffffffffffff16146117e2576040517f08c379a00000000000000000000000000000000000000000000000000000000081526004016117d990613522565b60405180910390fd5b600073ffffffffffffffffffffffffffffffffffffffff168273ffffffffffffffffffffffffffffffffffffffff161415611852576040517f08c379a0000000000000000000000000000000000000000000000000000000008152600401611849906133e2565b60405180910390fd5b61185d83838361212f565b6118686000826115d5565b6001600360008573ffffffffffffffffffffffffffffffffffffffff1673ffffffffffffffffffffffffffffffffffffffff16815260200190815260200160002060008282546118b891906137ac565b925050819055506001600360008473ffffffffffffffffffffffffffffffffffffffff1673ffffffffffffffffffffffffffffffffffffffff168152602001908152602001600020600082825461190f91906136cb565b92505081905550816002600083815260200190815260200160002060006101000a81548173ffffffffffffffffffffffffffffffffffffffff021916908373ffffffffffffffffffffffffffffffffffffffff160217905550808273ffffffffffffffffffffffffffffffffffffffff168473ffffffffffffffffffffffffffffffffffffffff167fddf252ad1be2c89b69c2b068fc378daa952ba7f163c4a11628f55a4df523b3ef60405160405180910390a4505050565b600081600001549050919050565b606060008251905060008114156119ff5760405180602001604052806000815250915050611b8f565b60006003600283611a1091906136cb565b611a1a9190613721565b6004611a269190613752565b90506000602082611a3791906136cb565b67ffffffffffffffff811115611a76577f4e487b7100000000000000000000000000000000000000000000000000000000600052604160045260246000fd5b6040519080825280601f01601f191660200182016040528015611aa85781602001600182028036833780820191505090505b509050600060405180606001604052806040815260200161417e604091399050600181016020830160005b86811015611b4c5760038101905062ffffff818a015116603f8160121c168401518060081b905060ff603f83600c1c1686015116810190508060081b905060ff603f8360061c1686015116810190508060081b905060ff603f831686015116810190508060e01b90508084526004840193505050611ad3565b506003860660018114611b665760028114611b7657611b81565b613d3d60f01b6002830352611b81565b603d60f81b60018303525b508484525050819450505050505b919050565b611bae828260405180602001604052806000815250612134565b5050565b611bbb82611561565b611bfa576040517f08c379a0000000000000000000000000000000000000000000000000000000008152600401611bf1906134a2565b60405180910390fd5b80600660008481526020019081526020016000209080519060200190611c21929190612723565b505050565b6001816000016000828254019250508190555050565b611cd6838383604051602401611c5493929190613364565b6040516020818303038152906040527fe3849f79000000000000000000000000000000000000000000000000000000007bffffffffffffffffffffffffffffffffffffffffffffffffffffffff19166020820180517bffffffffffffffffffffffffffffffffffffffffffffffffffffffff8381831617835250505050612106565b505050565b80600c819055507facb85192b17e57cdd6ffdc2af021cc70c3a2269771b37b82dd36695fec903af581604051611d119190613602565b60405180910390a15050565b8173ffffffffffffffffffffffffffffffffffffffff168373ffffffffffffffffffffffffffffffffffffffff161415611d8c576040517f08c379a0000000000000000000000000000000000000000000000000000000008152600401611d8390613402565b60405180910390fd5b80600560008573ffffffffffffffffffffffffffffffffffffffff1673ffffffffffffffffffffffffffffffffffffffff16815260200190815260200160002060008473ffffffffffffffffffffffffffffffffffffffff1673ffffffffffffffffffffffffffffffffffffffff16815260200190815260200160002060006101000a81548160ff0219169083151502179055508173ffffffffffffffffffffffffffffffffffffffff168373ffffffffffffffffffffffffffffffffffffffff167f17307eab39ab6107e8899845ad3d59bd9653f200f220920489ca2b5937696c3183604051611e7d919061329e565b60405180910390a3505050565b611e9584848461176c565b611ea18484848461218f565b611ee0576040517f08c379a0000000000000000000000000000000000000000000000000000000008152600401611ed7906133a2565b60405180910390fd5b50505050565b606060405180602001604052806000815250905090565b6060611f0882611561565b611f47576040517f08c379a0000000000000000000000000000000000000000000000000000000008152600401611f3e90613542565b60405180910390fd5b6000611f51611ee6565b90506000815111611f715760405180602001604052806000815250611f9c565b80611f7b84612326565b604051602001611f8c9291906130a9565b6040516020818303038152906040525b915050919050565b60007f000000000000000000000000000000000000000000000000000000000000000073ffffffffffffffffffffffffffffffffffffffff16634000aea07f0000000000000000000000000000000000000000000000000000000000000000848660006040516020016120189291906132d4565b6040516020818303038152906040526040518463ffffffff1660e01b815260040161204593929190613260565b602060405180830381600087803b15801561205f57600080fd5b505af1158015612073573d6000803e3d6000fd5b505050506040513d601f19601f820116820180604052508101906120979190612a7d565b5060006120ba8460003060076000898152602001908152602001600020546124d3565b9050600160076000868152602001908152602001600020546120dc91906136cb565b60076000868152602001908152602001600020819055506120fd848261250f565b91505092915050565b60008151905060006a636f6e736f6c652e6c6f679050602083016000808483855afa5050505050565b505050565b61213e8383612542565b61214b600084848461218f565b61218a576040517f08c379a0000000000000000000000000000000000000000000000000000000008152600401612181906133a2565b60405180910390fd5b505050565b60006121b08473ffffffffffffffffffffffffffffffffffffffff16612710565b15612319578373ffffffffffffffffffffffffffffffffffffffff1663150b7a026121d96115cd565b8786866040518563ffffffff1660e01b81526004016121fb94939291906131eb565b602060405180830381600087803b15801561221557600080fd5b505af192505050801561224657506040513d601f19601f820116820180604052508101906122439190612b0b565b60015b6122c9573d8060008114612276576040519150601f19603f3d011682016040523d82523d6000602084013e61227b565b606091505b506000815114156122c1576040517f08c379a00000000000000000000000000000000000000000000000000000000081526004016122b8906133a2565b60405180910390fd5b805181602001fd5b63150b7a0260e01b7bffffffffffffffffffffffffffffffffffffffffffffffffffffffff1916817bffffffffffffffffffffffffffffffffffffffffffffffffffffffff19161491505061231e565b600190505b949350505050565b6060600082141561236e576040518060400160405280600181526020017f300000000000000000000000000000000000000000000000000000000000000081525090506124ce565b600082905060005b600082146123a057808061238990613903565b915050600a826123999190613721565b9150612376565b60008167ffffffffffffffff8111156123e2577f4e487b7100000000000000000000000000000000000000000000000000000000600052604160045260246000fd5b6040519080825280601f01601f1916602001820160405280156124145781602001600182028036833780820191505090505b5090505b600085146124c75760018261242d91906137ac565b9150600a8561243c9190613960565b603061244891906136cb565b60f81b818381518110612484577f4e487b7100000000000000000000000000000000000000000000000000000000600052603260045260246000fd5b60200101907effffffffffffffffffffffffffffffffffffffffffffffffffffffffffffff1916908160001a905350600a856124c09190613721565b9450612418565b8093505050505b919050565b6000848484846040516020016124ec94939291906132fd565b6040516020818303038152906040528051906020012060001c9050949350505050565b6000828260405160200161252492919061307d565b60405160208183030381529060405280519060200120905092915050565b600073ffffffffffffffffffffffffffffffffffffffff168273ffffffffffffffffffffffffffffffffffffffff1614156125b2576040517f08c379a00000000000000000000000000000000000000000000000000000000081526004016125a9906134c2565b60405180910390fd5b6125bb81611561565b156125fb576040517f08c379a00000000000000000000000000000000000000000000000000000000081526004016125f2906133c2565b60405180910390fd5b6126076000838361212f565b6001600360008473ffffffffffffffffffffffffffffffffffffffff1673ffffffffffffffffffffffffffffffffffffffff168152602001908152602001600020600082825461265791906136cb565b92505081905550816002600083815260200190815260200160002060006101000a81548173ffffffffffffffffffffffffffffffffffffffff021916908373ffffffffffffffffffffffffffffffffffffffff160217905550808273ffffffffffffffffffffffffffffffffffffffff16600073ffffffffffffffffffffffffffffffffffffffff167fddf252ad1be2c89b69c2b068fc378daa952ba7f163c4a11628f55a4df523b3ef60405160405180910390a45050565b600080823b905060008111915050919050565b82805461272f906138a0565b90600052602060002090601f0160209004810192826127515760008555612798565b82601f1061276a57805160ff1916838001178555612798565b82800160010185558215612798579182015b8281111561279757825182559160200191906001019061277c565b5b5090506127a591906127a9565b5090565b5b808211156127c25760008160009055506001016127aa565b5090565b60006127d96127d484613642565b61361d565b9050828152602081018484840111156127f157600080fd5b6127fc84828561385e565b509392505050565b600081359050612813816140e5565b92915050565b600081359050612828816140fc565b92915050565b60008151905061283d816140fc565b92915050565b60008135905061285281614113565b92915050565b6000813590506128678161412a565b92915050565b60008151905061287c8161412a565b92915050565b600082601f83011261289357600080fd5b81356128a38482602086016127c6565b91505092915050565b6000813590506128bb81614141565b92915050565b6000815190506128d081614141565b92915050565b6000602082840312156128e857600080fd5b60006128f684828501612804565b91505092915050565b6000806040838503121561291257600080fd5b600061292085828601612804565b925050602061293185828601612804565b9150509250929050565b60008060006060848603121561295057600080fd5b600061295e86828701612804565b935050602061296f86828701612804565b9250506040612980868287016128ac565b9150509250925092565b600080600080608085870312156129a057600080fd5b60006129ae87828801612804565b94505060206129bf87828801612804565b93505060406129d0878288016128ac565b925050606085013567ffffffffffffffff8111156129ed57600080fd5b6129f987828801612882565b91505092959194509250565b60008060408385031215612a1857600080fd5b6000612a2685828601612804565b9250506020612a3785828601612819565b9150509250929050565b60008060408385031215612a5457600080fd5b6000612a6285828601612804565b9250506020612a73858286016128ac565b9150509250929050565b600060208284031215612a8f57600080fd5b6000612a9d8482850161282e565b91505092915050565b60008060408385031215612ab957600080fd5b6000612ac785828601612843565b9250506020612ad8858286016128ac565b9150509250929050565b600060208284031215612af457600080fd5b6000612b0284828501612858565b91505092915050565b600060208284031215612b1d57600080fd5b6000612b2b8482850161286d565b91505092915050565b600060208284031215612b4657600080fd5b6000612b54848285016128ac565b91505092915050565b600060208284031215612b6f57600080fd5b6000612b7d848285016128c1565b91505092915050565b612b8f816137e0565b82525050565b612b9e816137f2565b82525050565b612bad816137fe565b82525050565b612bc4612bbf826137fe565b61394c565b82525050565b6000612bd582613688565b612bdf818561369e565b9350612bef81856020860161386d565b612bf881613a4d565b840191505092915050565b6000612c0e82613693565b612c1881856136af565b9350612c2881856020860161386d565b612c3181613a4d565b840191505092915050565b6000612c4782613693565b612c5181856136c0565b9350612c6181856020860161386d565b80840191505092915050565b60008154612c7a816138a0565b612c8481866136c0565b94506001821660008114612c9f5760018114612cb057612ce3565b60ff19831686528186019350612ce3565b612cb985613673565b60005b83811015612cdb57815481890152600182019150602081019050612cbc565b838801955050505b50505092915050565b6000612cf96025836136c0565b9150612d0482613a5e565b602582019050919050565b6000612d1c6032836136af565b9150612d2782613aad565b604082019050919050565b6000612d3f601c836136af565b9150612d4a82613afc565b602082019050919050565b6000612d626024836136af565b9150612d6d82613b25565b604082019050919050565b6000612d856019836136af565b9150612d9082613b74565b602082019050919050565b6000612da86063836136c0565b9150612db382613b9d565b606382019050919050565b6000612dcb602c836136af565b9150612dd682613c38565b604082019050919050565b6000612dee600d836136c0565b9150612df982613c87565b600d82019050919050565b6000612e116038836136af565b9150612e1c82613cb0565b604082019050919050565b6000612e34602a836136af565b9150612e3f82613cff565b604082019050919050565b6000612e576029836136af565b9150612e6282613d4e565b604082019050919050565b6000612e7a602e836136af565b9150612e8582613d9d565b604082019050919050565b6000612e9d6002836136c0565b9150612ea882613dec565b600282019050919050565b6000612ec06020836136af565b9150612ecb82613e15565b602082019050919050565b6000612ee36031836136af565b9150612eee82613e3e565b604082019050919050565b6000612f06602c836136af565b9150612f1182613e8d565b604082019050919050565b6000612f296029836136af565b9150612f3482613edc565b604082019050919050565b6000612f4c602f836136af565b9150612f5782613f2b565b604082019050919050565b6000612f6f600a836136c0565b9150612f7a82613f7a565b600a82019050919050565b6000612f92601f836136af565b9150612f9d82613fa3565b602082019050919050565b6000612fb56021836136af565b9150612fc082613fcc565b604082019050919050565b6000612fd8601d836136c0565b9150612fe38261401b565b601d82019050919050565b6000612ffb6031836136af565b915061300682614044565b604082019050919050565b600061301e6019836136af565b915061302982614093565b602082019050919050565b6000613041601d836136af565b915061304c826140bc565b602082019050919050565b61306081613854565b82525050565b61307761307282613854565b613956565b82525050565b60006130898285612bb3565b6020820191506130998284613066565b6020820191508190509392505050565b60006130b58285612c3c565b91506130c18284612c3c565b91508190509392505050565b60006130d98286612c3c565b91506130e58285612c3c565b91506130f18284612c3c565b9150819050949350505050565b600061310a8287612c6d565b91506131168286612c3c565b91506131228285612c6d565b915061312e8284612c3c565b915061313982612de1565b915081905095945050505050565b600061315282612cec565b915061315e8284612c3c565b915081905092915050565b600061317482612f62565b91506131808285612c3c565b915061318b82612d9b565b91506131978284612c3c565b91506131a282612e90565b91508190509392505050565b60006131b982612fcb565b91506131c58284612c3c565b915081905092915050565b60006020820190506131e56000830184612b86565b92915050565b60006080820190506132006000830187612b86565b61320d6020830186612b86565b61321a6040830185613057565b818103606083015261322c8184612bca565b905095945050505050565b600060408201905061324c6000830185612b86565b6132596020830184613057565b9392505050565b60006060820190506132756000830186612b86565b6132826020830185613057565b81810360408301526132948184612bca565b9050949350505050565b60006020820190506132b36000830184612b95565b92915050565b60006020820190506132ce6000830184612ba4565b92915050565b60006040820190506132e96000830185612ba4565b6132f66020830184613057565b9392505050565b60006080820190506133126000830187612ba4565b61331f6020830186613057565b61332c6040830185612b86565b6133396060830184613057565b95945050505050565b6000602082019050818103600083015261335c8184612c03565b905092915050565b6000606082019050818103600083015261337e8186612c03565b905061338d6020830185613057565b61339a6040830184612b86565b949350505050565b600060208201905081810360008301526133bb81612d0f565b9050919050565b600060208201905081810360008301526133db81612d32565b9050919050565b600060208201905081810360008301526133fb81612d55565b9050919050565b6000602082019050818103600083015261341b81612d78565b9050919050565b6000602082019050818103600083015261343b81612dbe565b9050919050565b6000602082019050818103600083015261345b81612e04565b9050919050565b6000602082019050818103600083015261347b81612e27565b9050919050565b6000602082019050818103600083015261349b81612e4a565b9050919050565b600060208201905081810360008301526134bb81612e6d565b9050919050565b600060208201905081810360008301526134db81612eb3565b9050919050565b600060208201905081810360008301526134fb81612ed6565b9050919050565b6000602082019050818103600083015261351b81612ef9565b9050919050565b6000602082019050818103600083015261353b81612f1c565b9050919050565b6000602082019050818103600083015261355b81612f3f565b9050919050565b6000602082019050818103600083015261357b81612f85565b9050919050565b6000602082019050818103600083015261359b81612fa8565b9050919050565b600060208201905081810360008301526135bb81612fee565b9050919050565b600060208201905081810360008301526135db81613011565b9050919050565b600060208201905081810360008301526135fb81613034565b9050919050565b60006020820190506136176000830184613057565b92915050565b6000613627613638565b905061363382826138d2565b919050565b6000604051905090565b600067ffffffffffffffff82111561365d5761365c613a1e565b5b61366682613a4d565b9050602081019050919050565b60008190508160005260206000209050919050565b600081519050919050565b600081519050919050565b600082825260208201905092915050565b600082825260208201905092915050565b600081905092915050565b60006136d682613854565b91506136e183613854565b9250827fffffffffffffffffffffffffffffffffffffffffffffffffffffffffffffffff0382111561371657613715613991565b5b828201905092915050565b600061372c82613854565b915061373783613854565b925082613747576137466139c0565b5b828204905092915050565b600061375d82613854565b915061376883613854565b9250817fffffffffffffffffffffffffffffffffffffffffffffffffffffffffffffffff04831182151516156137a1576137a0613991565b5b828202905092915050565b60006137b782613854565b91506137c283613854565b9250828210156137d5576137d4613991565b5b828203905092915050565b60006137eb82613834565b9050919050565b60008115159050919050565b6000819050919050565b60007fffffffff0000000000000000000000000000000000000000000000000000000082169050919050565b600073ffffffffffffffffffffffffffffffffffffffff82169050919050565b6000819050919050565b82818337600083830152505050565b60005b8381101561388b578082015181840152602081019050613870565b8381111561389a576000848401525b50505050565b600060028204905060018216806138b857607f821691505b602082108114156138cc576138cb6139ef565b5b50919050565b6138db82613a4d565b810181811067ffffffffffffffff821117156138fa576138f9613a1e565b5b80604052505050565b600061390e82613854565b91507fffffffffffffffffffffffffffffffffffffffffffffffffffffffffffffffff82141561394157613940613991565b5b600182019050919050565b6000819050919050565b6000819050919050565b600061396b82613854565b915061397683613854565b925082613986576139856139c0565b5b828206905092915050565b7f4e487b7100000000000000000000000000000000000000000000000000000000600052601160045260246000fd5b7f4e487b7100000000000000000000000000000000000000000000000000000000600052601260045260246000fd5b7f4e487b7100000000000000000000000000000000000000000000000000000000600052602260045260246000fd5b7f4e487b7100000000000000000000000000000000000000000000000000000000600052604160045260246000fd5b6000601f19601f8301169050919050565b7f68747470733a2f2f6e6674707265766965772e30786465762e636f6465732f3f60008201527f636f64653d000000000000000000000000000000000000000000000000000000602082015250565b7f4552433732313a207472616e7366657220746f206e6f6e20455243373231526560008201527f63656976657220696d706c656d656e7465720000000000000000000000000000602082015250565b7f4552433732313a20746f6b656e20616c7265616479206d696e74656400000000600082015250565b7f4552433732313a207472616e7366657220746f20746865207a65726f2061646460008201527f7265737300000000000000000000000000000000000000000000000000000000602082015250565b7f4552433732313a20617070726f766520746f2063616c6c657200000000000000600082015250565b7f222c20226465736372697074696f6e223a20224120686967686c79206163636c60008201527f61696d656420636f6c6c656374696f6e206f6620737175617265732e222c202260208201527f696d616765223a2022646174613a696d6167652f7376672b786d6c3b6261736560408201527f36342c0000000000000000000000000000000000000000000000000000000000606082015250565b7f4552433732313a206f70657261746f7220717565727920666f72206e6f6e657860008201527f697374656e7420746f6b656e0000000000000000000000000000000000000000602082015250565b7f3c2f746578743e3c2f7376673e00000000000000000000000000000000000000600082015250565b7f4552433732313a20617070726f76652063616c6c6572206973206e6f74206f7760008201527f6e6572206e6f7220617070726f76656420666f7220616c6c0000000000000000602082015250565b7f4552433732313a2062616c616e636520717565727920666f7220746865207a6560008201527f726f206164647265737300000000000000000000000000000000000000000000602082015250565b7f4552433732313a206f776e657220717565727920666f72206e6f6e657869737460008201527f656e7420746f6b656e0000000000000000000000000000000000000000000000602082015250565b7f45524337323155524953746f726167653a2055524920736574206f66206e6f6e60008201527f6578697374656e7420746f6b656e000000000000000000000000000000000000602082015250565b7f227d000000000000000000000000000000000000000000000000000000000000600082015250565b7f4552433732313a206d696e7420746f20746865207a65726f2061646472657373600082015250565b7f45524337323155524953746f726167653a2055524920717565727920666f722060008201527f6e6f6e6578697374656e7420746f6b656e000000000000000000000000000000602082015250565b7f4552433732313a20617070726f76656420717565727920666f72206e6f6e657860008201527f697374656e7420746f6b656e0000000000000000000000000000000000000000602082015250565b7f4552433732313a207472616e73666572206f6620746f6b656e2074686174206960008201527f73206e6f74206f776e0000000000000000000000000000000000000000000000602082015250565b7f4552433732314d657461646174613a2055524920717565727920666f72206e6f60008201527f6e6578697374656e7420746f6b656e0000000000000000000000000000000000602082015250565b7f7b226e616d65223a202200000000000000000000000000000000000000000000600082015250565b7f4f6e6c7920565246436f6f7264696e61746f722063616e2066756c66696c6c00600082015250565b7f4552433732313a20617070726f76616c20746f2063757272656e74206f776e6560008201527f7200000000000000000000000000000000000000000000000000000000000000602082015250565b7f646174613a6170706c69636174696f6e2f6a736f6e3b6261736536342c000000600082015250565b7f4552433732313a207472616e736665722063616c6c6572206973206e6f74206f60008201527f776e6572206e6f7220617070726f766564000000000000000000000000000000602082015250565b7f596f7520646f6e74206861766520656e6f756768204c494e4b00000000000000600082015250565b7f416c6c203530204e6674732068617665206265656e206d696e74656421000000600082015250565b6140ee816137e0565b81146140f957600080fd5b50565b614105816137f2565b811461411057600080fd5b50565b61411c816137fe565b811461412757600080fd5b50565b61413381613808565b811461413e57600080fd5b50565b61414a81613854565b811461415557600080fd5b5056fe416e204e465420772f20494420257320686173206265656e206d696e74656420746f2025734142434445464748494a4b4c4d4e4f505152535455565758595a6162636465666768696a6b6c6d6e6f707172737475767778797a303132333435363738392b2fa2646970667358221220a61c33c5544924c55a960564af2ebc8f67987bebc6a9cf4edd2bdfc3d596099b64736f6c634300080400333c73766720786d6c6e733d27687474703a2f2f7777772e77332e6f72672f323030302f73766727207072657365727665417370656374526174696f3d27784d696e594d696e206d656574272076696577426f783d273020302033353020333530273e3c7374796c653e2e62617365207b2066696c6c3a2077686974653b20666f6e742d66616d696c793a2073657269663b20666f6e742d73697a653a20323470783b207d3c2f7374796c653e3c726563742077696474683d273130302527206865696768743d2731303025272066696c6c3d27272f3e3c7465787420783d273530252720793d273530252720636c6173733d27626173652720646f6d696e616e742d626173656c696e653d276d6964646c652720746578742d616e63686f723d276d6964646c65273e",
  "linkReferences": {},
  "deployedLinkReferences": {}
}