{
  "_format": "hh-sol-artifact-1",
  "contractName": "MyEpicNft",
  "sourceName": "contracts/MyEpicNft.sol",
  "abi": [
    {
      "inputs": [],
      "stateMutability": "payable",
      "type": "constructor"
    },
    {
      "anonymous": false,
      "inputs": [
        {
          "indexed": true,
          "internalType": "address",
          "name": "owner",
          "type": "address"
        },
        {
          "indexed": true,
          "internalType": "address",
          "name": "approved",
          "type": "address"
        },
        {
          "indexed": true,
          "internalType": "uint256",
          "name": "tokenId",
          "type": "uint256"
        }
      ],
      "name": "Approval",
      "type": "event"
    },
    {
      "anonymous": false,
      "inputs": [
        {
          "indexed": true,
          "internalType": "address",
          "name": "owner",
          "type": "address"
        },
        {
          "indexed": true,
          "internalType": "address",
          "name": "operator",
          "type": "address"
        },
        {
          "indexed": false,
          "internalType": "bool",
          "name": "approved",
          "type": "bool"
        }
      ],
      "name": "ApprovalForAll",
      "type": "event"
    },
    {
      "anonymous": false,
      "inputs": [
        {
          "indexed": true,
          "internalType": "address",
          "name": "from",
          "type": "address"
        },
        {
          "indexed": true,
          "internalType": "address",
          "name": "to",
          "type": "address"
        },
        {
          "indexed": true,
          "internalType": "uint256",
          "name": "tokenId",
          "type": "uint256"
        }
      ],
      "name": "Transfer",
      "type": "event"
    },
    {
      "anonymous": false,
      "inputs": [
        {
          "indexed": false,
          "internalType": "address",
          "name": "sender",
          "type": "address"
        },
        {
          "indexed": false,
          "internalType": "uint256",
          "name": "tokenId",
          "type": "uint256"
        }
      ],
      "name": "newEpicNftMinted",
      "type": "event"
    },
    {
      "inputs": [
        {
          "internalType": "address",
          "name": "to",
          "type": "address"
        },
        {
          "internalType": "uint256",
          "name": "tokenId",
          "type": "uint256"
        }
      ],
      "name": "approve",
      "outputs": [],
      "stateMutability": "nonpayable",
      "type": "function"
    },
    {
      "inputs": [
        {
          "internalType": "address",
          "name": "owner",
          "type": "address"
        }
      ],
      "name": "balanceOf",
      "outputs": [
        {
          "internalType": "uint256",
          "name": "",
          "type": "uint256"
        }
      ],
      "stateMutability": "view",
      "type": "function"
    },
    {
      "inputs": [
        {
          "internalType": "uint256",
          "name": "tokenId",
          "type": "uint256"
        }
      ],
      "name": "getApproved",
      "outputs": [
        {
          "internalType": "address",
          "name": "",
          "type": "address"
        }
      ],
      "stateMutability": "view",
      "type": "function"
    },
    {
      "inputs": [],
      "name": "getTotalNftsMinted",
      "outputs": [
        {
          "internalType": "uint256",
          "name": "",
          "type": "uint256"
        }
      ],
      "stateMutability": "view",
      "type": "function"
    },
    {
      "inputs": [
        {
          "internalType": "address",
          "name": "owner",
          "type": "address"
        },
        {
          "internalType": "address",
          "name": "operator",
          "type": "address"
        }
      ],
      "name": "isApprovedForAll",
      "outputs": [
        {
          "internalType": "bool",
          "name": "",
          "type": "bool"
        }
      ],
      "stateMutability": "view",
      "type": "function"
    },
    {
      "inputs": [],
      "name": "makeAnEpicNft",
      "outputs": [],
      "stateMutability": "nonpayable",
      "type": "function"
    },
    {
      "inputs": [],
      "name": "name",
      "outputs": [
        {
          "internalType": "string",
          "name": "",
          "type": "string"
        }
      ],
      "stateMutability": "view",
      "type": "function"
    },
    {
      "inputs": [
        {
          "internalType": "uint256",
          "name": "tokenId",
          "type": "uint256"
        }
      ],
      "name": "ownerOf",
      "outputs": [
        {
          "internalType": "address",
          "name": "",
          "type": "address"
        }
      ],
      "stateMutability": "view",
      "type": "function"
    },
    {
      "inputs": [
        {
          "internalType": "uint256",
          "name": "tokenId",
          "type": "uint256"
        }
      ],
      "name": "pickRandomColor",
      "outputs": [
        {
          "internalType": "string",
          "name": "",
          "type": "string"
        }
      ],
      "stateMutability": "view",
      "type": "function"
    },
    {
      "inputs": [
        {
          "internalType": "uint256",
          "name": "tokenId",
          "type": "uint256"
        }
      ],
      "name": "pickRandomFirstWord",
      "outputs": [
        {
          "internalType": "string",
          "name": "",
          "type": "string"
        }
      ],
      "stateMutability": "view",
      "type": "function"
    },
    {
      "inputs": [
        {
          "internalType": "uint256",
          "name": "tokenId",
          "type": "uint256"
        }
      ],
      "name": "pickRandomSecondWord",
      "outputs": [
        {
          "internalType": "string",
          "name": "",
          "type": "string"
        }
      ],
      "stateMutability": "view",
      "type": "function"
    },
    {
      "inputs": [
        {
          "internalType": "uint256",
          "name": "tokenId",
          "type": "uint256"
        }
      ],
      "name": "pickRandomThirdWord",
      "outputs": [
        {
          "internalType": "string",
          "name": "",
          "type": "string"
        }
      ],
      "stateMutability": "view",
      "type": "function"
    },
    {
      "inputs": [
        {
          "internalType": "address",
          "name": "from",
          "type": "address"
        },
        {
          "internalType": "address",
          "name": "to",
          "type": "address"
        },
        {
          "internalType": "uint256",
          "name": "tokenId",
          "type": "uint256"
        }
      ],
      "name": "safeTransferFrom",
      "outputs": [],
      "stateMutability": "nonpayable",
      "type": "function"
    },
    {
      "inputs": [
        {
          "internalType": "address",
          "name": "from",
          "type": "address"
        },
        {
          "internalType": "address",
          "name": "to",
          "type": "address"
        },
        {
          "internalType": "uint256",
          "name": "tokenId",
          "type": "uint256"
        },
        {
          "internalType": "bytes",
          "name": "_data",
          "type": "bytes"
        }
      ],
      "name": "safeTransferFrom",
      "outputs": [],
      "stateMutability": "nonpayable",
      "type": "function"
    },
    {
      "inputs": [
        {
          "internalType": "address",
          "name": "operator",
          "type": "address"
        },
        {
          "internalType": "bool",
          "name": "approved",
          "type": "bool"
        }
      ],
      "name": "setApprovalForAll",
      "outputs": [],
      "stateMutability": "nonpayable",
      "type": "function"
    },
    {
      "inputs": [
        {
          "internalType": "bytes4",
          "name": "interfaceId",
          "type": "bytes4"
        }
      ],
      "name": "supportsInterface",
      "outputs": [
        {
          "internalType": "bool",
          "name": "",
          "type": "bool"
        }
      ],
      "stateMutability": "view",
      "type": "function"
    },
    {
      "inputs": [],
      "name": "symbol",
      "outputs": [
        {
          "internalType": "string",
          "name": "",
          "type": "string"
        }
      ],
      "stateMutability": "view",
      "type": "function"
    },
    {
      "inputs": [
        {
          "internalType": "uint256",
          "name": "tokenId",
          "type": "uint256"
        }
      ],
      "name": "tokenURI",
      "outputs": [
        {
          "internalType": "string",
          "name": "",
          "type": "string"
        }
      ],
      "stateMutability": "view",
      "type": "function"
    },
    {
      "inputs": [
        {
          "internalType": "address",
          "name": "from",
          "type": "address"
        },
        {
          "internalType": "address",
          "name": "to",
          "type": "address"
        },
        {
          "internalType": "uint256",
          "name": "tokenId",
          "type": "uint256"
        }
      ],
      "name": "transferFrom",
      "outputs": [],
      "stateMutability": "nonpayable",
      "type": "function"
    }
  ],
  "bytecode": "0x608060405260405180610100016040528060d3815260200162004b4d60d39139600790805190602001906200003692919062000aaf565b5060405180608001604052806056815260200162004c2060569139600890805190602001906200006892919062000aaf565b5060006009556040518061016001604052806040518060400160405280600981526020017f46616e746173746963000000000000000000000000000000000000000000000081525081526020016040518060400160405280600481526020017f457069630000000000000000000000000000000000000000000000000000000081525081526020016040518060400160405280600881526020017f5465727269626c6500000000000000000000000000000000000000000000000081525081526020016040518060400160405280600581526020017f4372617a7900000000000000000000000000000000000000000000000000000081525081526020016040518060400160405280600481526020017f57696c640000000000000000000000000000000000000000000000000000000081525081526020016040518060400160405280600a81526020017f54657272696679696e670000000000000000000000000000000000000000000081525081526020016040518060400160405280600681526020017f53706f6f6b79000000000000000000000000000000000000000000000000000081525081526020016040518060400160405280600681526020017f53636f6f6279000000000000000000000000000000000000000000000000000081525081526020016040518060400160405280601381526020017f537570657243616c6946616a696c69737469630000000000000000000000000081525081526020016040518060400160405280600481526020017f526172650000000000000000000000000000000000000000000000000000000081525081526020016040518060400160405280600981526020017f4c6567656e646172790000000000000000000000000000000000000000000000815250815250600a90600b6200031392919062000b40565b506040518061010001604052806040518060400160405280600781526020017f43757063616b650000000000000000000000000000000000000000000000000081525081526020016040518060400160405280600581526020017f50697a7a6100000000000000000000000000000000000000000000000000000081525081526020016040518060400160405280600981526020017f4d696c6b7368616b65000000000000000000000000000000000000000000000081525081526020016040518060400160405280600581526020017f437572727900000000000000000000000000000000000000000000000000000081525081526020016040518060400160405280600781526020017f436869636b656e0000000000000000000000000000000000000000000000000081525081526020016040518060400160405280600581526020017f53616c616400000000000000000000000000000000000000000000000000000081525081526020016040518060400160405280600881526020017f53616e647769636800000000000000000000000000000000000000000000000081525081526020016040518060400160405280600481526020017f4669736800000000000000000000000000000000000000000000000000000000815250815250600b9060086200050892919062000ba7565b506040518061014001604052806040518060400160405280600681526020017f4e617275746f000000000000000000000000000000000000000000000000000081525081526020016040518060400160405280600681526020017f536173756b65000000000000000000000000000000000000000000000000000081525081526020016040518060400160405280600481526020017f53756b690000000000000000000000000000000000000000000000000000000081525081526020016040518060400160405280600481526020017f476f6b750000000000000000000000000000000000000000000000000000000081525081526020016040518060400160405280600681526020017f566567657461000000000000000000000000000000000000000000000000000081525081526020016040518060400160405280600681526020017f4b72696c696e000000000000000000000000000000000000000000000000000081525081526020016040518060400160405280600681526020017f5069636f6c6f000000000000000000000000000000000000000000000000000081525081526020016040518060400160405280600581526020017f476f68616e00000000000000000000000000000000000000000000000000000081525081526020016040518060400160405280600681526020017f467269657a61000000000000000000000000000000000000000000000000000081525081526020016040518060400160405280600681526020017f4265657275730000000000000000000000000000000000000000000000000000815250815250600c90600a6200077392919062000c0e565b506040518060c001604052806040518060400160405280600381526020017f726564000000000000000000000000000000000000000000000000000000000081525081526020016040518060400160405280600781526020017f233038433241380000000000000000000000000000000000000000000000000081525081526020016040518060400160405280600581526020017f626c61636b00000000000000000000000000000000000000000000000000000081525081526020016040518060400160405280600681526020017f79656c6c6f77000000000000000000000000000000000000000000000000000081525081526020016040518060400160405280600481526020017f626c75650000000000000000000000000000000000000000000000000000000081525081526020016040518060400160405280600581526020017f677265656e000000000000000000000000000000000000000000000000000000815250815250600d906006620008f192919062000c75565b506040518060400160405280600981526020017f49726f6e69634e667400000000000000000000000000000000000000000000008152506040518060400160405280600681526020017f49524f4e4943000000000000000000000000000000000000000000000000000081525081600090805190602001906200097692919062000aaf565b5080600190805190602001906200098f92919062000aaf565b505050620009dd6040518060400160405280600b81526020017f576f686f6f2c204e667473000000000000000000000000000000000000000000815250620009e360201b620013771760201c565b62000e96565b62000a8381604051602401620009fa919062000daa565b6040516020818303038152906040527f41304fac000000000000000000000000000000000000000000000000000000007bffffffffffffffffffffffffffffffffffffffffffffffffffffffff19166020820180517bffffffffffffffffffffffffffffffffffffffffffffffffffffffff838183161783525050505062000a8660201b60201c565b50565b60008151905060006a636f6e736f6c652e6c6f679050602083016000808483855afa5050505050565b82805462000abd9062000e20565b90600052602060002090601f01602090048101928262000ae1576000855562000b2d565b82601f1062000afc57805160ff191683800117855562000b2d565b8280016001018555821562000b2d579182015b8281111562000b2c57825182559160200191906001019062000b0f565b5b50905062000b3c919062000cdc565b5090565b82805482825590600052602060002090810192821562000b94579160200282015b8281111562000b9357825182908051906020019062000b8292919062000aaf565b509160200191906001019062000b61565b5b50905062000ba3919062000cfb565b5090565b82805482825590600052602060002090810192821562000bfb579160200282015b8281111562000bfa57825182908051906020019062000be992919062000aaf565b509160200191906001019062000bc8565b5b50905062000c0a919062000cfb565b5090565b82805482825590600052602060002090810192821562000c62579160200282015b8281111562000c6157825182908051906020019062000c5092919062000aaf565b509160200191906001019062000c2f565b5b50905062000c71919062000cfb565b5090565b82805482825590600052602060002090810192821562000cc9579160200282015b8281111562000cc857825182908051906020019062000cb792919062000aaf565b509160200191906001019062000c96565b5b50905062000cd8919062000cfb565b5090565b5b8082111562000cf757600081600090555060010162000cdd565b5090565b5b8082111562000d1f576000818162000d15919062000d23565b5060010162000cfc565b5090565b50805462000d319062000e20565b6000825580601f1062000d45575062000d66565b601f01602090049060005260206000209081019062000d65919062000cdc565b5b50565b600062000d768262000dce565b62000d82818562000dd9565b935062000d9481856020860162000dea565b62000d9f8162000e85565b840191505092915050565b6000602082019050818103600083015262000dc6818462000d69565b905092915050565b600081519050919050565b600082825260208201905092915050565b60005b8381101562000e0a57808201518184015260208101905062000ded565b8381111562000e1a576000848401525b50505050565b6000600282049050600182168062000e3957607f821691505b6020821081141562000e505762000e4f62000e56565b5b50919050565b7f4e487b7100000000000000000000000000000000000000000000000000000000600052602260045260246000fd5b6000601f19601f8301169050919050565b613ca78062000ea66000396000f3fe608060405234801561001057600080fd5b50600436106101215760003560e01c806370a08231116100ad578063b88d4fde11610071578063b88d4fde1461032c578063c1d6008314610348578063c575757a14610366578063c87b56dd14610396578063e985e9c5146103c657610121565b806370a082311461028857806375dd5f84146102b857806395d89b41146102c2578063a22cb465146102e0578063b187301f146102fc57610121565b806323b872dd116100f457806323b872dd146101c05780632de38d68146101dc57806342842e0e1461020c578063514dc8c6146102285780636352211e1461025857610121565b806301ffc9a71461012657806306fdde0314610156578063081812fc14610174578063095ea7b3146101a4575b600080fd5b610140600480360381019061013b9190612777565b6103f6565b60405161014d9190612e79565b60405180910390f35b61015e6104d8565b60405161016b9190612e94565b60405180910390f35b61018e600480360381019061018991906127c9565b61056a565b60405161019b9190612de9565b60405180910390f35b6101be60048036038101906101b9919061273b565b6105ef565b005b6101da60048036038101906101d59190612635565b610707565b005b6101f660048036038101906101f191906127c9565b610767565b6040516102039190612e94565b60405180910390f35b61022660048036038101906102219190612635565b610888565b005b610242600480360381019061023d91906127c9565b6108a8565b60405161024f9190612e94565b60405180910390f35b610272600480360381019061026d91906127c9565b6109c9565b60405161027f9190612de9565b60405180910390f35b6102a2600480360381019061029d91906125d0565b610a7b565b6040516102af9190613114565b60405180910390f35b6102c0610b33565b005b6102ca610e3b565b6040516102d79190612e94565b60405180910390f35b6102fa60048036038101906102f591906126ff565b610ecd565b005b610316600480360381019061031191906127c9565b610ee3565b6040516103239190612e94565b60405180910390f35b61034660048036038101906103419190612684565b611004565b005b610350611066565b60405161035d9190613114565b60405180910390f35b610380600480360381019061037b91906127c9565b611070565b60405161038d9190612e94565b60405180910390f35b6103b060048036038101906103ab91906127c9565b611191565b6040516103bd9190612e94565b60405180910390f35b6103e060048036038101906103db91906125f9565b6112e3565b6040516103ed9190612e79565b60405180910390f35b60007f80ac58cd000000000000000000000000000000000000000000000000000000007bffffffffffffffffffffffffffffffffffffffffffffffffffffffff1916827bffffffffffffffffffffffffffffffffffffffffffffffffffffffff191614806104c157507f5b5e139f000000000000000000000000000000000000000000000000000000007bffffffffffffffffffffffffffffffffffffffffffffffffffffffff1916827bffffffffffffffffffffffffffffffffffffffffffffffffffffffff1916145b806104d157506104d082611410565b5b9050919050565b6060600080546104e7906133a8565b80601f0160208091040260200160405190810160405280929190818152602001828054610513906133a8565b80156105605780601f1061053557610100808354040283529160200191610560565b820191906000526020600020905b81548152906001019060200180831161054357829003601f168201915b5050505050905090565b60006105758261147a565b6105b4576040517f08c379a00000000000000000000000000000000000000000000000000000000081526004016105ab90613054565b60405180910390fd5b6004600083815260200190815260200160002060009054906101000a900473ffffffffffffffffffffffffffffffffffffffff169050919050565b60006105fa826109c9565b90508073ffffffffffffffffffffffffffffffffffffffff168373ffffffffffffffffffffffffffffffffffffffff16141561066b576040517f08c379a0000000000000000000000000000000000000000000000000000000008152600401610662906130b4565b60405180910390fd5b8073ffffffffffffffffffffffffffffffffffffffff1661068a6114e6565b73ffffffffffffffffffffffffffffffffffffffff1614806106b957506106b8816106b36114e6565b6112e3565b5b6106f8576040517f08c379a00000000000000000000000000000000000000000000000000000000081526004016106ef90612f94565b60405180910390fd5b61070283836114ee565b505050565b6107186107126114e6565b826115a7565b610757576040517f08c379a000000000000000000000000000000000000000000000000000000000815260040161074e906130d4565b60405180910390fd5b610762838383611685565b505050565b6060600061079b610777846118e1565b6040516020016107879190612d60565b604051602081830303815290604052611a8e565b90506000600a80549050826107b09190613454565b9050600a81815481106107ec577f4e487b7100000000000000000000000000000000000000000000000000000000600052603260045260246000fd5b906000526020600020018054610801906133a8565b80601f016020809104026020016040519081016040528092919081815260200182805461082d906133a8565b801561087a5780601f1061084f5761010080835404028352916020019161087a565b820191906000526020600020905b81548152906001019060200180831161085d57829003601f168201915b505050505092505050919050565b6108a383838360405180602001604052806000815250611004565b505050565b606060006108dc6108b8846118e1565b6040516020016108c89190612d60565b604051602081830303815290604052611a8e565b90506000600d80549050826108f19190613454565b9050600d818154811061092d577f4e487b7100000000000000000000000000000000000000000000000000000000600052603260045260246000fd5b906000526020600020018054610942906133a8565b80601f016020809104026020016040519081016040528092919081815260200182805461096e906133a8565b80156109bb5780601f10610990576101008083540402835291602001916109bb565b820191906000526020600020905b81548152906001019060200180831161099e57829003601f168201915b505050505092505050919050565b6000806002600084815260200190815260200160002060009054906101000a900473ffffffffffffffffffffffffffffffffffffffff169050600073ffffffffffffffffffffffffffffffffffffffff168173ffffffffffffffffffffffffffffffffffffffff161415610a72576040517f08c379a0000000000000000000000000000000000000000000000000000000008152600401610a6990612fd4565b60405180910390fd5b80915050919050565b60008073ffffffffffffffffffffffffffffffffffffffff168273ffffffffffffffffffffffffffffffffffffffff161415610aec576040517f08c379a0000000000000000000000000000000000000000000000000000000008152600401610ae390612fb4565b60405180910390fd5b600360008373ffffffffffffffffffffffffffffffffffffffff1673ffffffffffffffffffffffffffffffffffffffff168152602001908152602001600020549050919050565b60326001600954610b4491906131dd565b1115610b85576040517f08c379a0000000000000000000000000000000000000000000000000000000008152600401610b7c906130f4565b60405180910390fd5b6000610b91600e611ac1565b90506000610b9e82610767565b90506000610bab83610ee3565b90506000610bb884611070565b90506000610bc5856108a8565b90506000848484604051602001610bde93929190612cc4565b60405160208183030381529060405290506000600783600884604051602001610c0a9493929190612cf5565b60405160208183030381529060405290506000610c4f83610c2a84611acf565b604051602001610c3b929190612d82565b604051602081830303815290604052611acf565b9050600081604051602001610c649190612dc7565b6040516020818303038152906040529050610cb36040518060400160405280601581526020017f0a2d2d2d2d2d2d2d2d2d2d2d2d2d2d2d2d2d2d2d2d0000000000000000000000815250611377565b610cbc81611377565b610cfa6040518060400160405280601581526020017f2d2d2d2d2d2d2d2d2d2d2d2d2d2d2d2d2d2d2d2d0a0000000000000000000000815250611377565b610d04338a611c8d565b610d0e8982611cab565b610d18600e611d1f565b610d3b604051806060016040528060258152602001613c0d602591398a33611d35565b60096000815480929190610d4e9061340b565b91905055507f6f7cc39c2501a47a177fd5be282deb7b4074f6244d33b05e8bba5ad9824700ee338a604051610d84929190612e50565b60405180910390a1610dca6040518060400160405280601581526020017f0a2d2d2d2d2d2d2d2d2d2d2d2d2d2d2d2d2d2d2d2d0000000000000000000000815250611377565b610df281604051602001610dde9190612d3e565b604051602081830303815290604052611377565b610e306040518060400160405280601581526020017f2d2d2d2d2d2d2d2d2d2d2d2d2d2d2d2d2d2d2d2d0a0000000000000000000000815250611377565b505050505050505050565b606060018054610e4a906133a8565b80601f0160208091040260200160405190810160405280929190818152602001828054610e76906133a8565b8015610ec35780601f10610e9857610100808354040283529160200191610ec3565b820191906000526020600020905b815481529060010190602001808311610ea657829003601f168201915b5050505050905090565b610edf610ed86114e6565b8383611dd4565b5050565b60606000610f17610ef3846118e1565b604051602001610f039190612d60565b604051602081830303815290604052611a8e565b90506000600b8054905082610f2c9190613454565b9050600b8181548110610f68577f4e487b7100000000000000000000000000000000000000000000000000000000600052603260045260246000fd5b906000526020600020018054610f7d906133a8565b80601f0160208091040260200160405190810160405280929190818152602001828054610fa9906133a8565b8015610ff65780601f10610fcb57610100808354040283529160200191610ff6565b820191906000526020600020905b815481529060010190602001808311610fd957829003601f168201915b505050505092505050919050565b61101561100f6114e6565b836115a7565b611054576040517f08c379a000000000000000000000000000000000000000000000000000000000815260040161104b906130d4565b60405180910390fd5b61106084848484611f41565b50505050565b6000600954905090565b606060006110a4611080846118e1565b6040516020016110909190612d60565b604051602081830303815290604052611a8e565b90506000600c80549050826110b99190613454565b9050600c81815481106110f5577f4e487b7100000000000000000000000000000000000000000000000000000000600052603260045260246000fd5b90600052602060002001805461110a906133a8565b80601f0160208091040260200160405190810160405280929190818152602001828054611136906133a8565b80156111835780601f1061115857610100808354040283529160200191611183565b820191906000526020600020905b81548152906001019060200180831161116657829003601f168201915b505050505092505050919050565b606061119c8261147a565b6111db576040517f08c379a00000000000000000000000000000000000000000000000000000000081526004016111d290613034565b60405180910390fd5b60006006600084815260200190815260200160002080546111fb906133a8565b80601f0160208091040260200160405190810160405280929190818152602001828054611227906133a8565b80156112745780601f1061124957610100808354040283529160200191611274565b820191906000526020600020905b81548152906001019060200180831161125757829003601f168201915b505050505090506000611285611f9d565b905060008151141561129b5781925050506112de565b6000825111156112d05780826040516020016112b8929190612ca0565b604051602081830303815290604052925050506112de565b6112d984611fb4565b925050505b919050565b6000600560008473ffffffffffffffffffffffffffffffffffffffff1673ffffffffffffffffffffffffffffffffffffffff16815260200190815260200160002060008373ffffffffffffffffffffffffffffffffffffffff1673ffffffffffffffffffffffffffffffffffffffff16815260200190815260200160002060009054906101000a900460ff16905092915050565b61140d8160405160240161138b9190612e94565b6040516020818303038152906040527f41304fac000000000000000000000000000000000000000000000000000000007bffffffffffffffffffffffffffffffffffffffffffffffffffffffff19166020820180517bffffffffffffffffffffffffffffffffffffffffffffffffffffffff838183161783525050505061205b565b50565b60007f01ffc9a7000000000000000000000000000000000000000000000000000000007bffffffffffffffffffffffffffffffffffffffffffffffffffffffff1916827bffffffffffffffffffffffffffffffffffffffffffffffffffffffff1916149050919050565b60008073ffffffffffffffffffffffffffffffffffffffff166002600084815260200190815260200160002060009054906101000a900473ffffffffffffffffffffffffffffffffffffffff1673ffffffffffffffffffffffffffffffffffffffff1614159050919050565b600033905090565b816004600083815260200190815260200160002060006101000a81548173ffffffffffffffffffffffffffffffffffffffff021916908373ffffffffffffffffffffffffffffffffffffffff160217905550808273ffffffffffffffffffffffffffffffffffffffff16611561836109c9565b73ffffffffffffffffffffffffffffffffffffffff167f8c5be1e5ebec7d5bd14f71427d1e84f3dd0314c0f7b2291e5b200ac8c7c3b92560405160405180910390a45050565b60006115b28261147a565b6115f1576040517f08c379a00000000000000000000000000000000000000000000000000000000081526004016115e890612f74565b60405180910390fd5b60006115fc836109c9565b90508073ffffffffffffffffffffffffffffffffffffffff168473ffffffffffffffffffffffffffffffffffffffff16148061166b57508373ffffffffffffffffffffffffffffffffffffffff166116538461056a565b73ffffffffffffffffffffffffffffffffffffffff16145b8061167c575061167b81856112e3565b5b91505092915050565b8273ffffffffffffffffffffffffffffffffffffffff166116a5826109c9565b73ffffffffffffffffffffffffffffffffffffffff16146116fb576040517f08c379a00000000000000000000000000000000000000000000000000000000081526004016116f290613074565b60405180910390fd5b600073ffffffffffffffffffffffffffffffffffffffff168273ffffffffffffffffffffffffffffffffffffffff16141561176b576040517f08c379a000000000000000000000000000000000000000000000000000000000815260040161176290612f34565b60405180910390fd5b611776838383612084565b6117816000826114ee565b6001600360008573ffffffffffffffffffffffffffffffffffffffff1673ffffffffffffffffffffffffffffffffffffffff16815260200190815260200160002060008282546117d191906132be565b925050819055506001600360008473ffffffffffffffffffffffffffffffffffffffff1673ffffffffffffffffffffffffffffffffffffffff168152602001908152602001600020600082825461182891906131dd565b92505081905550816002600083815260200190815260200160002060006101000a81548173ffffffffffffffffffffffffffffffffffffffff021916908373ffffffffffffffffffffffffffffffffffffffff160217905550808273ffffffffffffffffffffffffffffffffffffffff168473ffffffffffffffffffffffffffffffffffffffff167fddf252ad1be2c89b69c2b068fc378daa952ba7f163c4a11628f55a4df523b3ef60405160405180910390a4505050565b60606000821415611929576040518060400160405280600181526020017f30000000000000000000000000000000000000000000000000000000000000008152509050611a89565b600082905060005b6000821461195b5780806119449061340b565b915050600a826119549190613233565b9150611931565b60008167ffffffffffffffff81111561199d577f4e487b7100000000000000000000000000000000000000000000000000000000600052604160045260246000fd5b6040519080825280601f01601f1916602001820160405280156119cf5781602001600182028036833780820191505090505b5090505b60008514611a82576001826119e891906132be565b9150600a856119f79190613454565b6030611a0391906131dd565b60f81b818381518110611a3f577f4e487b7100000000000000000000000000000000000000000000000000000000600052603260045260246000fd5b60200101907effffffffffffffffffffffffffffffffffffffffffffffffffffffffffffff1916908160001a905350600a85611a7b9190613233565b94506119d3565b8093505050505b919050565b600081604051602001611aa19190612c89565b6040516020818303038152906040528051906020012060001c9050919050565b600081600001549050919050565b60606000825190506000811415611af85760405180602001604052806000815250915050611c88565b60006003600283611b0991906131dd565b611b139190613233565b6004611b1f9190613264565b90506000602082611b3091906131dd565b67ffffffffffffffff811115611b6f577f4e487b7100000000000000000000000000000000000000000000000000000000600052604160045260246000fd5b6040519080825280601f01601f191660200182016040528015611ba15781602001600182028036833780820191505090505b5090506000604051806060016040528060408152602001613c32604091399050600181016020830160005b86811015611c455760038101905062ffffff818a015116603f8160121c168401518060081b905060ff603f83600c1c1686015116810190508060081b905060ff603f8360061c1686015116810190508060081b905060ff603f831686015116810190508060e01b90508084526004840193505050611bcc565b506003860660018114611c5f5760028114611c6f57611c7a565b613d3d60f01b6002830352611c7a565b603d60f81b60018303525b508484525050819450505050505b919050565b611ca7828260405180602001604052806000815250612089565b5050565b611cb48261147a565b611cf3576040517f08c379a0000000000000000000000000000000000000000000000000000000008152600401611cea90612ff4565b60405180910390fd5b80600660008481526020019081526020016000209080519060200190611d1a92919061245c565b505050565b6001816000016000828254019250508190555050565b611dcf838383604051602401611d4d93929190612eb6565b6040516020818303038152906040527fe3849f79000000000000000000000000000000000000000000000000000000007bffffffffffffffffffffffffffffffffffffffffffffffffffffffff19166020820180517bffffffffffffffffffffffffffffffffffffffffffffffffffffffff838183161783525050505061205b565b505050565b8173ffffffffffffffffffffffffffffffffffffffff168373ffffffffffffffffffffffffffffffffffffffff161415611e43576040517f08c379a0000000000000000000000000000000000000000000000000000000008152600401611e3a90612f54565b60405180910390fd5b80600560008573ffffffffffffffffffffffffffffffffffffffff1673ffffffffffffffffffffffffffffffffffffffff16815260200190815260200160002060008473ffffffffffffffffffffffffffffffffffffffff1673ffffffffffffffffffffffffffffffffffffffff16815260200190815260200160002060006101000a81548160ff0219169083151502179055508173ffffffffffffffffffffffffffffffffffffffff168373ffffffffffffffffffffffffffffffffffffffff167f17307eab39ab6107e8899845ad3d59bd9653f200f220920489ca2b5937696c3183604051611f349190612e79565b60405180910390a3505050565b611f4c848484611685565b611f58848484846120e4565b611f97576040517f08c379a0000000000000000000000000000000000000000000000000000000008152600401611f8e90612ef4565b60405180910390fd5b50505050565b606060405180602001604052806000815250905090565b6060611fbf8261147a565b611ffe576040517f08c379a0000000000000000000000000000000000000000000000000000000008152600401611ff590613094565b60405180910390fd5b6000612008611f9d565b905060008151116120285760405180602001604052806000815250612053565b80612032846118e1565b604051602001612043929190612ca0565b6040516020818303038152906040525b915050919050565b60008151905060006a636f6e736f6c652e6c6f679050602083016000808483855afa5050505050565b505050565b612093838361227b565b6120a060008484846120e4565b6120df576040517f08c379a00000000000000000000000000000000000000000000000000000000081526004016120d690612ef4565b60405180910390fd5b505050565b60006121058473ffffffffffffffffffffffffffffffffffffffff16612449565b1561226e578373ffffffffffffffffffffffffffffffffffffffff1663150b7a0261212e6114e6565b8786866040518563ffffffff1660e01b81526004016121509493929190612e04565b602060405180830381600087803b15801561216a57600080fd5b505af192505050801561219b57506040513d601f19601f8201168201806040525081019061219891906127a0565b60015b61221e573d80600081146121cb576040519150601f19603f3d011682016040523d82523d6000602084013e6121d0565b606091505b50600081511415612216576040517f08c379a000000000000000000000000000000000000000000000000000000000815260040161220d90612ef4565b60405180910390fd5b805181602001fd5b63150b7a0260e01b7bffffffffffffffffffffffffffffffffffffffffffffffffffffffff1916817bffffffffffffffffffffffffffffffffffffffffffffffffffffffff191614915050612273565b600190505b949350505050565b600073ffffffffffffffffffffffffffffffffffffffff168273ffffffffffffffffffffffffffffffffffffffff1614156122eb576040517f08c379a00000000000000000000000000000000000000000000000000000000081526004016122e290613014565b60405180910390fd5b6122f48161147a565b15612334576040517f08c379a000000000000000000000000000000000000000000000000000000000815260040161232b90612f14565b60405180910390fd5b61234060008383612084565b6001600360008473ffffffffffffffffffffffffffffffffffffffff1673ffffffffffffffffffffffffffffffffffffffff168152602001908152602001600020600082825461239091906131dd565b92505081905550816002600083815260200190815260200160002060006101000a81548173ffffffffffffffffffffffffffffffffffffffff021916908373ffffffffffffffffffffffffffffffffffffffff160217905550808273ffffffffffffffffffffffffffffffffffffffff16600073ffffffffffffffffffffffffffffffffffffffff167fddf252ad1be2c89b69c2b068fc378daa952ba7f163c4a11628f55a4df523b3ef60405160405180910390a45050565b600080823b905060008111915050919050565b828054612468906133a8565b90600052602060002090601f01602090048101928261248a57600085556124d1565b82601f106124a357805160ff19168380011785556124d1565b828001600101855582156124d1579182015b828111156124d05782518255916020019190600101906124b5565b5b5090506124de91906124e2565b5090565b5b808211156124fb5760008160009055506001016124e3565b5090565b600061251261250d84613154565b61312f565b90508281526020810184848401111561252a57600080fd5b612535848285613366565b509392505050565b60008135905061254c81613bb0565b92915050565b60008135905061256181613bc7565b92915050565b60008135905061257681613bde565b92915050565b60008151905061258b81613bde565b92915050565b600082601f8301126125a257600080fd5b81356125b28482602086016124ff565b91505092915050565b6000813590506125ca81613bf5565b92915050565b6000602082840312156125e257600080fd5b60006125f08482850161253d565b91505092915050565b6000806040838503121561260c57600080fd5b600061261a8582860161253d565b925050602061262b8582860161253d565b9150509250929050565b60008060006060848603121561264a57600080fd5b60006126588682870161253d565b93505060206126698682870161253d565b925050604061267a868287016125bb565b9150509250925092565b6000806000806080858703121561269a57600080fd5b60006126a88782880161253d565b94505060206126b98782880161253d565b93505060406126ca878288016125bb565b925050606085013567ffffffffffffffff8111156126e757600080fd5b6126f387828801612591565b91505092959194509250565b6000806040838503121561271257600080fd5b60006127208582860161253d565b925050602061273185828601612552565b9150509250929050565b6000806040838503121561274e57600080fd5b600061275c8582860161253d565b925050602061276d858286016125bb565b9150509250929050565b60006020828403121561278957600080fd5b600061279784828501612567565b91505092915050565b6000602082840312156127b257600080fd5b60006127c08482850161257c565b91505092915050565b6000602082840312156127db57600080fd5b60006127e9848285016125bb565b91505092915050565b6127fb816132f2565b82525050565b61280a81613304565b82525050565b600061281b8261319a565b61282581856131b0565b9350612835818560208601613375565b61283e81613541565b840191505092915050565b6000612854826131a5565b61285e81856131c1565b935061286e818560208601613375565b61287781613541565b840191505092915050565b600061288d826131a5565b61289781856131d2565b93506128a7818560208601613375565b80840191505092915050565b600081546128c0816133a8565b6128ca81866131d2565b945060018216600081146128e557600181146128f657612929565b60ff19831686528186019350612929565b6128ff85613185565b60005b8381101561292157815481890152600182019150602081019050612902565b838801955050505b50505092915050565b600061293f6025836131d2565b915061294a82613552565b602582019050919050565b60006129626032836131c1565b915061296d826135a1565b604082019050919050565b6000612985601c836131c1565b9150612990826135f0565b602082019050919050565b60006129a8600a836131d2565b91506129b382613619565b600a82019050919050565b60006129cb6024836131c1565b91506129d682613642565b604082019050919050565b60006129ee6019836131c1565b91506129f982613691565b602082019050919050565b6000612a116063836131d2565b9150612a1c826136ba565b606382019050919050565b6000612a34602c836131c1565b9150612a3f82613755565b604082019050919050565b6000612a57600d836131d2565b9150612a62826137a4565b600d82019050919050565b6000612a7a6038836131c1565b9150612a85826137cd565b604082019050919050565b6000612a9d602a836131c1565b9150612aa88261381c565b604082019050919050565b6000612ac06029836131c1565b9150612acb8261386b565b604082019050919050565b6000612ae3602e836131c1565b9150612aee826138ba565b604082019050919050565b6000612b066002836131d2565b9150612b1182613909565b600282019050919050565b6000612b296020836131c1565b9150612b3482613932565b602082019050919050565b6000612b4c6031836131c1565b9150612b578261395b565b604082019050919050565b6000612b6f602c836131c1565b9150612b7a826139aa565b604082019050919050565b6000612b926029836131c1565b9150612b9d826139f9565b604082019050919050565b6000612bb5602f836131c1565b9150612bc082613a48565b604082019050919050565b6000612bd8600a836131d2565b9150612be382613a97565b600a82019050919050565b6000612bfb6021836131c1565b9150612c0682613ac0565b604082019050919050565b6000612c1e601d836131d2565b9150612c2982613b0f565b601d82019050919050565b6000612c416031836131c1565b9150612c4c82613b38565b604082019050919050565b6000612c64601d836131c1565b9150612c6f82613b87565b602082019050919050565b612c838161335c565b82525050565b6000612c958284612882565b915081905092915050565b6000612cac8285612882565b9150612cb88284612882565b91508190509392505050565b6000612cd08286612882565b9150612cdc8285612882565b9150612ce88284612882565b9150819050949350505050565b6000612d0182876128b3565b9150612d0d8286612882565b9150612d1982856128b3565b9150612d258284612882565b9150612d3082612a4a565b915081905095945050505050565b6000612d4982612932565b9150612d558284612882565b915081905092915050565b6000612d6b8261299b565b9150612d778284612882565b915081905092915050565b6000612d8d82612bcb565b9150612d998285612882565b9150612da482612a04565b9150612db08284612882565b9150612dbb82612af9565b91508190509392505050565b6000612dd282612c11565b9150612dde8284612882565b915081905092915050565b6000602082019050612dfe60008301846127f2565b92915050565b6000608082019050612e1960008301876127f2565b612e2660208301866127f2565b612e336040830185612c7a565b8181036060830152612e458184612810565b905095945050505050565b6000604082019050612e6560008301856127f2565b612e726020830184612c7a565b9392505050565b6000602082019050612e8e6000830184612801565b92915050565b60006020820190508181036000830152612eae8184612849565b905092915050565b60006060820190508181036000830152612ed08186612849565b9050612edf6020830185612c7a565b612eec60408301846127f2565b949350505050565b60006020820190508181036000830152612f0d81612955565b9050919050565b60006020820190508181036000830152612f2d81612978565b9050919050565b60006020820190508181036000830152612f4d816129be565b9050919050565b60006020820190508181036000830152612f6d816129e1565b9050919050565b60006020820190508181036000830152612f8d81612a27565b9050919050565b60006020820190508181036000830152612fad81612a6d565b9050919050565b60006020820190508181036000830152612fcd81612a90565b9050919050565b60006020820190508181036000830152612fed81612ab3565b9050919050565b6000602082019050818103600083015261300d81612ad6565b9050919050565b6000602082019050818103600083015261302d81612b1c565b9050919050565b6000602082019050818103600083015261304d81612b3f565b9050919050565b6000602082019050818103600083015261306d81612b62565b9050919050565b6000602082019050818103600083015261308d81612b85565b9050919050565b600060208201905081810360008301526130ad81612ba8565b9050919050565b600060208201905081810360008301526130cd81612bee565b9050919050565b600060208201905081810360008301526130ed81612c34565b9050919050565b6000602082019050818103600083015261310d81612c57565b9050919050565b60006020820190506131296000830184612c7a565b92915050565b600061313961314a565b905061314582826133da565b919050565b6000604051905090565b600067ffffffffffffffff82111561316f5761316e613512565b5b61317882613541565b9050602081019050919050565b60008190508160005260206000209050919050565b600081519050919050565b600081519050919050565b600082825260208201905092915050565b600082825260208201905092915050565b600081905092915050565b60006131e88261335c565b91506131f38361335c565b9250827fffffffffffffffffffffffffffffffffffffffffffffffffffffffffffffffff0382111561322857613227613485565b5b828201905092915050565b600061323e8261335c565b91506132498361335c565b925082613259576132586134b4565b5b828204905092915050565b600061326f8261335c565b915061327a8361335c565b9250817fffffffffffffffffffffffffffffffffffffffffffffffffffffffffffffffff04831182151516156132b3576132b2613485565b5b828202905092915050565b60006132c98261335c565b91506132d48361335c565b9250828210156132e7576132e6613485565b5b828203905092915050565b60006132fd8261333c565b9050919050565b60008115159050919050565b60007fffffffff0000000000000000000000000000000000000000000000000000000082169050919050565b600073ffffffffffffffffffffffffffffffffffffffff82169050919050565b6000819050919050565b82818337600083830152505050565b60005b83811015613393578082015181840152602081019050613378565b838111156133a2576000848401525b50505050565b600060028204905060018216806133c057607f821691505b602082108114156133d4576133d36134e3565b5b50919050565b6133e382613541565b810181811067ffffffffffffffff8211171561340257613401613512565b5b80604052505050565b60006134168261335c565b91507fffffffffffffffffffffffffffffffffffffffffffffffffffffffffffffffff82141561344957613448613485565b5b600182019050919050565b600061345f8261335c565b915061346a8361335c565b92508261347a576134796134b4565b5b828206905092915050565b7f4e487b7100000000000000000000000000000000000000000000000000000000600052601160045260246000fd5b7f4e487b7100000000000000000000000000000000000000000000000000000000600052601260045260246000fd5b7f4e487b7100000000000000000000000000000000000000000000000000000000600052602260045260246000fd5b7f4e487b7100000000000000000000000000000000000000000000000000000000600052604160045260246000fd5b6000601f19601f8301169050919050565b7f68747470733a2f2f6e6674707265766965772e30786465762e636f6465732f3f60008201527f636f64653d000000000000000000000000000000000000000000000000000000602082015250565b7f4552433732313a207472616e7366657220746f206e6f6e20455243373231526560008201527f63656976657220696d706c656d656e7465720000000000000000000000000000602082015250565b7f4552433732313a20746f6b656e20616c7265616479206d696e74656400000000600082015250565b7f54484952445f574f524400000000000000000000000000000000000000000000600082015250565b7f4552433732313a207472616e7366657220746f20746865207a65726f2061646460008201527f7265737300000000000000000000000000000000000000000000000000000000602082015250565b7f4552433732313a20617070726f766520746f2063616c6c657200000000000000600082015250565b7f222c20226465736372697074696f6e223a20224120686967686c79206163636c60008201527f61696d656420636f6c6c656374696f6e206f6620737175617265732e222c202260208201527f696d616765223a2022646174613a696d6167652f7376672b786d6c3b6261736560408201527f36342c0000000000000000000000000000000000000000000000000000000000606082015250565b7f4552433732313a206f70657261746f7220717565727920666f72206e6f6e657860008201527f697374656e7420746f6b656e0000000000000000000000000000000000000000602082015250565b7f3c2f746578743e3c2f7376673e00000000000000000000000000000000000000600082015250565b7f4552433732313a20617070726f76652063616c6c6572206973206e6f74206f7760008201527f6e6572206e6f7220617070726f76656420666f7220616c6c0000000000000000602082015250565b7f4552433732313a2062616c616e636520717565727920666f7220746865207a6560008201527f726f206164647265737300000000000000000000000000000000000000000000602082015250565b7f4552433732313a206f776e657220717565727920666f72206e6f6e657869737460008201527f656e7420746f6b656e0000000000000000000000000000000000000000000000602082015250565b7f45524337323155524953746f726167653a2055524920736574206f66206e6f6e60008201527f6578697374656e7420746f6b656e000000000000000000000000000000000000602082015250565b7f227d000000000000000000000000000000000000000000000000000000000000600082015250565b7f4552433732313a206d696e7420746f20746865207a65726f2061646472657373600082015250565b7f45524337323155524953746f726167653a2055524920717565727920666f722060008201527f6e6f6e6578697374656e7420746f6b656e000000000000000000000000000000602082015250565b7f4552433732313a20617070726f76656420717565727920666f72206e6f6e657860008201527f697374656e7420746f6b656e0000000000000000000000000000000000000000602082015250565b7f4552433732313a207472616e73666572206f6620746f6b656e2074686174206960008201527f73206e6f74206f776e0000000000000000000000000000000000000000000000602082015250565b7f4552433732314d657461646174613a2055524920717565727920666f72206e6f60008201527f6e6578697374656e7420746f6b656e0000000000000000000000000000000000602082015250565b7f7b226e616d65223a202200000000000000000000000000000000000000000000600082015250565b7f4552433732313a20617070726f76616c20746f2063757272656e74206f776e6560008201527f7200000000000000000000000000000000000000000000000000000000000000602082015250565b7f646174613a6170706c69636174696f6e2f6a736f6e3b6261736536342c000000600082015250565b7f4552433732313a207472616e736665722063616c6c6572206973206e6f74206f60008201527f776e6572206e6f7220617070726f766564000000000000000000000000000000602082015250565b7f416c6c203530204e6674732068617665206265656e206d696e74656421000000600082015250565b613bb9816132f2565b8114613bc457600080fd5b50565b613bd081613304565b8114613bdb57600080fd5b50565b613be781613310565b8114613bf257600080fd5b50565b613bfe8161335c565b8114613c0957600080fd5b5056fe416e204e465420772f20494420257320686173206265656e206d696e74656420746f2025734142434445464748494a4b4c4d4e4f505152535455565758595a6162636465666768696a6b6c6d6e6f707172737475767778797a303132333435363738392b2fa2646970667358221220072e10566520647757c01d3803b3cdc2bbbba9271718749554860d67b41f4dc864736f6c634300080400333c73766720786d6c6e733d27687474703a2f2f7777772e77332e6f72672f323030302f73766727207072657365727665417370656374526174696f3d27784d696e594d696e206d656574272076696577426f783d273020302033353020333530273e3c7374796c653e2e62617365207b2066696c6c3a2077686974653b20666f6e742d66616d696c793a2073657269663b20666f6e742d73697a653a20323470783b207d3c2f7374796c653e3c726563742077696474683d273130302527206865696768743d2731303025272066696c6c3d27272f3e3c7465787420783d273530252720793d273530252720636c6173733d27626173652720646f6d696e616e742d626173656c696e653d276d6964646c652720746578742d616e63686f723d276d6964646c65273e",
  "linkReferences": {},
  "deployedLinkReferences": {}
}